:100000000C9461010C9489010C9489010C94890170
:100010000C9489010C9489010C9489010C94890138
:100020000C9489010C9489010C9489010C94890128
:100030000C9489010C9489010C9489010C94890118
:100040000C9437200C9489010C9405200C94DF1F2C
:100050000C9489010C9489010C9489010C948901F8
:100060000C9481200C94890100407A10F35A00A06E
:10007000724E18090010A5D4E80000E87648170071
:1000800000E40B54020000CA9A3B000000E1F505B1
:10009000000080969800000040420F000000A086FB
:1000A00001000000102700000000E803000000002D
:1000B0006400000000000A000000000001000000D1
:1000C00000002C76D888DC674F0823DFC1DFAE59EB
:1000D000E1B1B796E5E3E453C63AE651997696E87E
:1000E000E6C28426EB898C9B62ED407C6FFCEFBC02
:1000F0009C9F40F2BAA56FA5F490055A2AF75C932D
:100100006B6CF9676DC11BFCE0E40D47FEF520E662
:10011000B500D0ED902E0300943577050080841E45
:10012000080000204E0A000000C80C333333330FA0
:10013000986E12831141EF8D2114893BE65516CF3D
:10014000FEE6DB18D1844B381BF77C1D901DA4BB49
:10015000E424203284725E228100C9F124ECA1E5FE
:100160003D27626C6E6B696E660076657200312E9B
:10017000312E3000682D626561740034350062757F
:1001800066662D696E003235360064657600417210
:100190006475696E6F204E616E6F0063707500410B
:1001A000546D6567613332385000636F6E005735A8
:1001B0003130300066772D7479706500544D504CA5
:1001C00052595949612D566C006275696C6400443E
:1001D000656320333120323032322031363A3135C6
:1001E0003A313500000000000000250028002B00F7
:1001F00000000000240027002A0000000000230067
:100200002600290004040404040404040202020277
:1002100002020303030303030102040810204080C9
:100220000102040810200102040810200000000848
:1002300000020100000304070000000000000000AD
:100240008C018C018C018C018C018C018C018C0146
:100250008C018C018C018C018C018C018C018C0136
:100260008C018C018C018C018C018C018C018C0126
:100270008C018C018C018C018C018C018C018C0116
:1002800085098B0161098B0141091B098B018B01D8
:100290008B018B018B018B018B018B018B018B01FE
:1002A0008B018B018B018B018B018B018B018B01EE
:1002B0008B018B018B018B018B018B018B018B01DE
:1002C0002C2211241FBECFEFD8E0DEBFCDBF13E03C
:1002D000A0E0B1E0EEE3F6E602C005900D92A83191
:1002E000B107D9F726E0A8E1B3E001C01D92A73F0E
:1002F000B207E1F711E0C1E6D1E004C02197FE01A9
:100300000E941E32C036D107C9F70E9417230C94F1
:100310001D330C940000089508958CBD9DBD089573
:1003200020E3FC0120833296862F82958F706F70B8
:100330006A3030F4605D6293682F8111F5CF0895C3
:10034000695CF9CFFC01818D928D0895089508951F
:100350000895AF92BF92CF92DF92EF92FF920F93E8
:100360001F93CF93DF936C017B018B01040F151F4B
:10037000EB015E01AE18BF08C017D10759F06991B3
:10038000D601ED91FC910190F081E02DC601099517
:10039000892B79F7C501DF91CF911F910F91FF90C4
:1003A000EF90DF90CF90BF90AF900895FC01538DF8
:1003B000448D252F30E0842F90E0821B930B54173F
:1003C00010F0CF96089501970895FC01918D828DCC
:1003D000981761F0A28DAE0FBF2FB11D5D968C9165
:1003E000928D9F5F9F73928F90E008958FEF9FEFA4
:1003F0000895FC01918D828D981731F0828DE80F60
:10040000F11D858D90E008958FEF9FEF0895FC0119
:10041000918D228D892F90E0805C9F4F821B9109E6
:100420008F739927089585E694E00E94070221E0E2
:10043000892B09F420E0822F089580E090E0892B39
:1004400029F00E94130281110C9400000895FC0110
:10045000A48DA80FB92FB11DA35ABF4F2C91848D25
:1004600090E001968F739927848FA689B7892C9382
:10047000A089B1898C91837080648C93938D848DD5
:10048000981306C00288F389E02D80818F7D8083D8
:100490000895EF92FF920F931F93CF93DF93EC0198
:1004A00081E0888F9B8D8C8D98131AC0E889F9891B
:1004B000808185FF15C09FB7F894EE89FF8960831E
:1004C000E889F98980818370806480839FBF81E09F
:1004D00090E0DF91CF911F910F91FF90EF900895E1
:1004E000F62E0B8D10E00F5F1F4F0F731127E02EBC
:1004F0008C8D8E110CC00FB607FCFACFE889F989F4
:10050000808185FFF5CFCE010E942702F1CFEB8DD0
:10051000EC0FFD2FF11DE35AFF4FF0829FB7F894C7
:100520000B8FEA89FB8980818062CFCF682F85E6B7
:1005300094E00C944902CF93DF93EC01888D8823DB
:10054000B9F0AA89BB89E889F9898C9185FD03C036
:10055000808186FD0DC00FB607FCF7CF8C9185FF1B
:10056000F2CF808185FFEDCFCE010E942702E9CF37
:10057000DF91CF910895833081F028F4813099F094
:100580008230A9F008958730A9F08830C9F084300E
:10059000B1F4809180008F7D03C0809180008F77BF
:1005A00080938000089584B58F7784BD089584B5C5
:1005B0008F7DFBCF8091B0008F778093B00008953E
:1005C0008091B0008F7DF9CF1F93CF93DF93282FB9
:1005D00030E0F901E45DFD4F8491F901E85EFD4FE3
:1005E000D491F901EC5FFD4FC491CC23A9F0162FF3
:1005F00081110E94BB02EC2FF0E0EE0FFF1FEA51C9
:10060000FE4FA591B4918FB7F894EC91111108C0E9
:10061000D095DE23DC938FBFDF91CF911F9108959A
:10062000DE2BF8CFCF93DF9390E0FC01E85EFD4F27
:1006300024918C5F9D4FFC0184918823C9F090E048
:10064000880F991FFC01E051FE4FA591B491FC0168
:10065000EA51FE4FC591D49161110DC09FB7F89436
:100660008C91209582238C938881282328839FBF97
:10067000DF91CF910895623051F49FB7F8943C9187
:10068000822F809583238C93E8812E2BEFCF8FB719
:10069000F894EC912E2B2C938FBFEACF1F93CF931E
:1006A000DF93182FEB0161E00E941203209739F4C9
:1006B00060E0812FDF91CF911F910C94E402CF3F36
:1006C000D10511F461E0F5CFE12FF0E0E45DFD4FDD
:1006D000E491E33031F140F4E130B1F0E230E1F0A7
:1006E000C038D1057CF7E4CFE73029F1E83059F183
:1006F000E430B1F780918000806280938000D093D5
:100700008B00C0938A0004C084B5806884BDC7BDD7
:10071000DF91CF911F91089584B5806284BDC8BDDB
:10072000F7CF80918000806880938000D09389000B
:10073000C0938800EDCF8091B00080688093B000B6
:10074000C093B300E5CF8091B00080628093B00089
:10075000C093B400DDCF8E3008F08E508770806477
:1007600080937C0080917A00806480937A008091ED
:100770007A0086FDFCCF80917800909179000895F1
:100780003FB7F8948091C7039091C803A091C90323
:10079000B091CA0326B5A89B05C02F3F19F001965A
:1007A000A11DB11D3FBFBA2FA92F982F8827BC01CB
:1007B000CD01620F711D811D911D42E0660F771FF3
:1007C000881F991F4A95D1F708958F929F92AF92F3
:1007D000BF92CF92DF92EF92FF926B017C010E9459
:1007E000C0034B015C01C114D104E104F104B9F070
:1007F0000E94C003681979098A099B09683E734001
:100800008105910580F321E0C21AD108E108F108C1
:1008100088EE880E83E0981EA11CB11CE4CFFF90E7
:10082000EF90DF90CF90BF90AF909F908F90089502
:100830002FB7F8946091C3037091C4038091C503EE
:100840009091C6032FBF08954F925F926F927F924F
:10085000AF92BF92CF92DF92EF92FF920F931F93CE
:10086000CF93DF93EC016B017B01E40EF51E8B014E
:100870005801AC18BD080E151F0511F10E9418048F
:10088000688779878A879B87E881F9810284F38565
:10089000E02DCE01099597FF23C00E9418044884DB
:1008A00059846A847B8464197509860997094C8088
:1008B0005D806E807F80641575058605970520F341
:1008C000C501DF91CF911F910F91FF90EF90DF90C5
:1008D000CF90BF90AF907F906F905F904F900895B2
:1008E000F80181938F01C4CF85ED8093BC00809186
:1008F000BC0084FDFCCF10923F0408952091590361
:10090000260F3327331F21323105ECF420913F04A9
:10091000FC0190E080E0243069F082E00895A0912D
:1009200059032191AC01475C5C4FA40FB52FB11D59
:100930002C930196861798F380915903680F609362
:10094000590380E0089581E00895E0914304809187
:100950004204E81730F4F0E0E75EFC4F808190E05D
:1009600008958FEF9FEF0895909143048091420482
:100970002FEF3FEF981748F4E92FF0E0E75EFC4FC8
:10098000208130E09F5F90934304C90108958091D6
:10099000420490914304891B990B0895CF92DF92F2
:1009A000EF92FF920F931F93CF93DF937C01CB01C4
:1009B0008A012091A003222389F0EB016B01C40E70
:1009C000D51ECC15DD0569F06991D701ED91FC913B
:1009D0000190F081E02DC7010995F3CF642F0E94AB
:1009E0007E04C801DF91CF911F910F91FF90EF908E
:1009F000DF90CF900895CF93DF931F92CDB7DEB7EE
:100A000069832091A0032223F9F020914004203231
:100A100058F021E030E0FC013383228390E080E055
:100A20000F90DF91CF91089580914104E82FF0E07D
:100A3000EF55FC4F998190838F5F809341048093A1
:100A4000400481E090E0ECCF61E0CE0101960E948D
:100A50007E04F7CFCF93FC01C48121E02093A00353
:100A6000C093C10310924104109240048385682B07
:100A700082E095E00E94FB0490914004913208F0DE
:100A80003FC080913F048111FCCF82E080933F04FE
:100A900081E080933E048FEF80939F0310929E032A
:100AA00090939D03A1EAB3E0EDE7F3E080E09813B3
:100AB0002FC010927C0380917C03CC0FC82BC09375
:100AC0007C0380913D04813039F510923D04809182
:100AD0007C038093BB008091BC0083FDF8CF85EC44
:100AE0008093BC0080913F048230E1F380919F03AA
:100AF0008F3F31F080919F03803211F080919F03EE
:100B000010924104109240041092A003CF910895D6
:100B10002D9121938F5FCBCF85EEE2CFFC01208119
:100B20002EBD9B012150310941F051810DB407FECA
:100B3000FDCF4EB55EBD4193F5CF61507109860F73
:100B4000971F0DB407FEFDCF2EB5FC01208308953D
:100B5000E091CC03F091CD0380819091CB03892B60
:100B600080830895E091CC03F091CD039081809132
:100B7000CB0380958923808308958EBD00000DB43A
:100B800007FEFDCF8EB50895AF92BF92CF92DF9250
:100B9000EF92FF920F931F93CF93DF93CDB7DEB702
:100BA00028970FB6F894DEBF0FBECDBF8C017B0136
:100BB0006A01809164048333E1F45801A40EB51EE8
:100BC000A016B10609F46FC00E94B20580EF0E9422
:100BD000BD05812F0E94BD05802F0E94BD050F5FBE
:100BE0001F4FF70181917F010E94BD050E94A8055A
:100BF000E7CF5B01A40EB51E8433C1F40E94B20599
:100C000019830A838D2D80688B83CC8264E070E029
:100C1000CE0101960E948E05AE14BF0409F441C0B6
:100C2000F70181917F010E94BD05F6CF0E94B205B8
:100C30000F3F110509F028F419820A8384E08B83A1
:100C40000CC017FD17C019820A8333E0169507956B
:100C50003A95E1F7007E0C600B8386E0C816D1045C
:100C6000A0F5F701DE011496EA15FB0599F08191D4
:100C70008D93FACFC80126E0969587952A95E1F7DE
:100C8000807E19830A830115104C10F48461D7CF3C
:100C90008C61D5CFB6016D5F7F4FCE0101960E946A
:100CA0008E050E94A805C60128960FB6F894DEBFEF
:100CB0000FBECDBFDF91CF911F910F91FF90EF90AD
:100CC000DF90CF90BF90AF90089563E070E0CE01C9
:100CD00001960E948E05F70181917F010E94BD055A
:100CE000AE14BF04C1F7DDCFCF93DF931F92CDB712
:100CF000DEB7898341E050E0BE016F5F7F4F90E037
:100D000080E00E94C4050F90DF91CF91089590E09C
:100D100020916404233339F40C96982F990F990F7E
:100D2000990F80E008954896F8CFDA01E091CF035B
:100D3000F0E0FE2FEE27E60FF71F90E0982F8827B0
:100D4000A901BD018E0F9F1F0C94C405CF93DF93A3
:100D500000D0CDB7DEB779836A8322E030E0AE0100
:100D60004F5F5F4F60E170E00E9495060F900F901B
:100D7000DF91CF910895CF93DF9300D0CDB7DEB749
:100D800079836A8322E030E0AE014F5F5F4F64E019
:100D900070E00E9495060F900F90DF91CF9108951B
:100DA000CF93DF931F92CDB7DEB72091CF0330E012
:100DB000322F2227260F371F90E0982F882749834C
:100DC00041E050E0BE016F5F7F4F820F931F0E9492
:100DD000C4050F90DF91CF910895CF93DF931F92B9
:100DE000CDB7DEB76983DC01ED91FC910280F38120
:100DF000E02D41E050E0BE016F5F7F4F09950F90FD
:100E0000DF91CF910895FC019485FB0184859813AF
:100E100003C081E0943008F080E00895CF93DF9321
:100E20001F92CDB7DEB76983DC01ED91FC910280A2
:100E3000F381E02D41E050E0BE016F5F7F4F0995E7
:100E40000F90DF91CF9108950895FF920F931F9314
:100E5000CF93DF93EB01FC01178A168A2A812111B7
:100E600009C02B81211106C02C81211103C02D81C5
:100E7000222301F141155105E9F08A01FC01F08CB2
:100E800080E591E00E948D01AE014E5F5F4F24E04E
:100E900030E06CE070E08F2D0E949506B8018F2D38
:100EA0000E94A60681E090E0DF91CF911F910F9103
:100EB000FF90089580E0F7CFFC0184859585089523
:100EC000FC0184899589089527EC31E0FC01318388
:100ED0002083FB014089518962897389FC01428327
:100EE0005383648375830895DC01ED91FC91048C38
:100EF000F58DE02D099490E080E008958EE00E9449
:100F0000AB03BC01990F880B990B0E94D92F20E0ED
:100F100030E040EA50E40E94383020E030E040E821
:100F20005AE30E9438302AE037ED43E25CE30E9446
:100F30009031089590E080E00E94960290E080E079
:100F40000C94960290E080E00E94960281E090E08E
:100F50000C949602CF9380E390E00E94960285E67F
:100F600094E00E940702892BD1F385E694E00E9469
:100F7000E501C82F8093180385E694E00E940702DC
:100F8000892BD1F385E694E00E94E50120E03C2F17
:100F9000A901482BCA01CF910895FC01948599239A
:100FA00069F080819181DC01ED91FC910688F789DF
:100FB000E02D099591E0811101C090E0892F0895FD
:100FC000DC011C961C921C978D919C91DC01ED918B
:100FD000FC910488F589E02D0994FC0176876587EA
:100FE0000895DC01ED91FC91068CF78DE02D0995BB
:100FF00091E089270895862F089581E08627089536
:1010000021E0FC018485843008F020E0822F0895DF
:101010008F929F92AF92BF92EF92FF920F931F9386
:10102000CF93DF93CDB7DEB7A1970FB6F894DEBFAD
:101030000FBECDBF7C01FA01CB0119A2223008F40A
:101040002AE08E010F5D1F4F822E912CB12CA12C16
:10105000BF01A50194010E945F31F901CA016A3004
:1010600074F5605DD8016E938D01232B242B252B05
:1010700079F790E080E0109789F0FD010190002061
:10108000E9F73197AF014A1B5B0BD701ED91FC915A
:101090000280F381E02DB801C7010995A1960FB632
:1010A000F894DEBF0FBECDBFDF91CF911F910F919E
:1010B000FF90EF90BF90AF909F908F900895695CE4
:1010C000D1CFFC0101900020E9F73197AF01481B17
:1010D000590BBC0184E495E00C94A9018F929F9276
:1010E000AF92BF92CF92DF92EF92FF920F931F9336
:1010F000CF93DF937C01EB016C0182E0C80ED11C21
:101100004701E5E08E0E911C10E000E0F6014191F0
:101110006F0150E070E060E02AE0CE010E94080814
:101120005C01E881F9810190F081E02D6EE2CE0151
:1011300009958A0D9B1D080F191FC814D90431F792
:10114000F701458150E070E060E02AE0CE010E94A6
:101150000808800F911FDF91CF911F910F91FF9091
:10116000EF90DF90CF90BF90AF909F908F900895B9
:101170000F931F93CF938C01C62F0E942A056C2FCB
:101180006460C8010E942A056C2F6B7FC8010E9411
:101190002A0583EC90E00197F1F7CF911F910F9111
:1011A00008950F931F93CF93DF938C01D62FC42FF5
:1011B000607F642B0E94B80880E1D89FB0011124A1
:1011C0006C2BC801DF91CF911F910F910C94B8083F
:1011D000CF93DF93CDB7DEB728970FB6F894DEBF75
:1011E0000FBECDBF98E0EDE2F1E0DE011196019077
:1011F0000D929A95E1F790914C05961708F46FEFD0
:10120000262F30E0220F331F41E050E04C0F5D1FCE
:10121000240F351FF9016081680F606840E084E4A5
:1012200095E028960FB6F894DEBF0FBECDBFDF91D4
:10123000CF910C94D108FB01808191810E94002DF7
:10124000892B81F081E090E00E94960281E090E09D
:101250000E94960261E087E00E94E80889EC91E034
:101260000C94610881E090E00E94960290E080E09A
:101270000E94960261E087E00E94E80884ED91E018
:10128000EFCFFB01808191810E94002D21E000972A
:1012900009F420E020934504892B51F00E94A20715
:1012A00061E087E00E94E80880EE91E00C9461081C
:1012B0000E949A0761E087E00E94E8088BEE91E0C7
:1012C000F5CFFB01808191810E94002D21E00097E4
:1012D00009F420E020934404892B61F061E085E06B
:1012E0000E94E40260E087E00E94E80887EF91E056
:1012F0000C94610860E085E00E94E40260E087E011
:101300000E94E80881E092E0F3CFFB0180819181A7
:101310000E94002D892B61F061E084E00E94E402CC
:1013200060E087E00E94E8088CE092E00C9461089D
:1013300060E084E00E94E40260E087E00E94E80848
:1013400087E192E0F3CF41E00E94D10881E090E094
:101350000895AF92BF92CF92DF92EF92FF920F93D8
:101360001F93CF93DF9300D000D0CDB7DEB78C01B1
:101370006B017A01809164048333E9F45B016801B5
:10138000C40ED51EC016D106A9F10E94B2058FE089
:101390000E94BD05812F0E94BD05802F0E94BD05C2
:1013A0000F5F1F4F80E00E94BD05F50181935F0133
:1013B0000E94A805E7CF843369F50E94B20519831E
:1013C0000A838F2D8F778B83EC8264E070E0CE01EF
:1013D00001960E948E05A70170E060E0C6010E94A0
:1013E000F732E114F10421F0B701C6010E948E0525
:1013F0000E94A805C7010F900F900F900F90DF91EA
:10140000CF911F910F91FF90EF90DF90CF90BF9001
:10141000AF9008950E94B2050F3F110509F030F416
:1014200019820A831B8263E070E0D1CF17FD0BC0E5
:1014300019820A8333E0169507953A95E1F7007E05
:1014400008600B83F0CFC80126E0969587952A9512
:10145000E1F7807E19830A830115104C18F480612E
:101460008B83E1CF8861FCCFCF93DF931F92CDB701
:10147000DEB72091CF0330E0322F2227260F371F0F
:1014800090E0982F882741E050E0BE016F5F7F4FCA
:10149000820F931F0E94A90989810F90DF91CF913C
:1014A0000895CF93C82F462F61E070E00E94D006C8
:1014B00061E070E08C2F0E94340A8111F9CFCF9146
:1014C0000895CF93C82F80E591E00E948D0168E0D8
:1014D00070E08C2FCF910C94510ACF93C82F80E5E8
:1014E00091E00E948D0160E170E08C2FCF910C940F
:1014F000510ACF93DF93EC01888D843020F40E9451
:101500006D0A84E0888FDF91CF910895CF93C82F23
:1015100080E591E00E948D0163E070E08C2FCF9117
:101520000C94340ACF93DF93EC018C858430D0F493
:101530000E94860A843189F0882379F0883169F025
:1015400021E08C3159F4E881F9810084F185E02DA6
:10155000CE01099521E0892B09F420E0822FDF914B
:10156000CF91089580E0FBCFCF92DF92EF92FF9270
:10157000CF93DF93EC018C85843068F40E94610A7C
:101580000E9418046B017C018C850E94860A8111DF
:1015900009C084E08C87DF91CF91FF90EF90DF90BE
:1015A000CF90089561E070E080E090E00E94E50354
:1015B0000E941804AB01BC014C195D096E097F093A
:1015C0008D859E85B0E0A0E0481759076A077B0724
:1015D000D8F28C850E946D0ADCCFCF93FC01C08DC0
:1015E00080E591E00E948D0160E270E08C2F0E9406
:1015F000510A62E070E08C2F0E94340A84FD16C00C
:1016000062E070E08C2F0E94340A83FF0AC048E138
:1016100062E070E08C2F0E94D00680E090E0CF91D5
:10162000089580E591E00E948D01E3CF40E162E002
:1016300070E08C2F0E94D00681E0F0CFCF93DF9333
:101640001F92CDB7DEB741E050E0BE016F5F7F4F24
:1016500090E080E00E94A90989810F90DF91CF91ED
:101660000895CF93DF93C4E1D0E00E941E0B88233E
:1016700061F061E070E080E090E00E94E503219776
:10168000A1F780E0DF91CF91089581E0FBCF1F9318
:10169000CF93DF931F92CDB7DEB7182F80E591E08F
:1016A0000E948D01812F0E94870627E0129FF00182
:1016B0001124E85BFB4F22813381377041E050E019
:1016C000BE016F5F7F4F820F931F0E94A90989811E
:1016D0000F90DF91CF911F910895FC01808D843090
:1016E00040F4218D328D232B21F00E94470B90E096
:1016F00008958FEF9FEF0895CF93DF93FC0124852A
:10170000243028F08FEF9FEFDF91CF910895EC0107
:101710000190F081E02D0084F185E02D0995892B61
:1017200089F38C850E94470B90E0EECFDA01E091BF
:10173000CF03F0E0FE2FEE27E60FF71F90E0982F83
:101740008827A901BD018E0F9F1F0C94A9098F92B4
:101750009F92AF92BF92CF92DF92EF92FF921F9330
:10176000CF93DF93CDB7DEB72C970FB6F894DEBFDB
:101770000FBECDBF2091640414E0222339F16B0128
:101780007C0180E591E00E948D015E0127E0A20EC0
:10179000B11C450110E063E070E0812F0E94340A23
:1017A000F40181934F01882349F11F5F143099F7A9
:1017B00010E0F50181915F018D31D9F08831C9F0D8
:1017C0008A518230B0F01F5F143099F7812F2C9628
:1017D0000FB6F894DEBF0FBECDBFDF91CF911F9142
:1017E000FF90EF90DF90CF90BF90AF909F908F9041
:1017F000089560E170E0812F0E94510AA12EB12C62
:1018000083EE93E00197F1F742E870E060E0812F0A
:101810000E94D0064FEF62E070E0812F0E94D00658
:10182000B601C114D10491F480912101909122015B
:1018300001968115F0EC9F0708F45CC0909322019B
:10184000809321016091210170912201812F0E94DA
:10185000BB0686E0E5E3F1E0DE01119601900D9212
:101860008A95E1F7F70183818F778C8384818D835B
:1018700085818E83A7014E5F5F4F24E030E06CE0EE
:1018800070E0812F0E949506B601812F0E94A60666
:1018900026E030E0AE014F5F5F4F66E070E0812FE1
:1018A0000E94950661E070E0812F0E94510A27E0B6
:1018B0002A9DC0012B9D900D11249C01285B3B4F5C
:1018C0007901F9011182108222E030E0AE01455F1A
:1018D0005F4F68E270E0812F0E94960B8B859C859C
:1018E000982789279827F701938382831682158288
:1018F00014826CCF80E090ECA1CFCF92DF92EF9278
:10190000FF920F931F93CF93DF9300D000D000D0AE
:10191000CDB7DEB78C016B017A01FC01808D84307C
:1019200010F40E946D0A87EC91E09A838983F60196
:1019300082819381A481B5818B839C83AD83BE8397
:10194000B701CE0101960E94A70BF801808F843069
:10195000A0F4F586E486128E118E81E026960FB6ED
:10196000F894DEBF0FBECDBFDF91CF911F910F91D5
:10197000FF90EF90DF90CF90089580E0EFCFAF928F
:10198000BF92CF92DF92EF92FF920F931F93CF936C
:10199000DF9300D000D000D0CDB7DEB7082F6B01A9
:1019A00080E591E00E948D019E012F5F3F4F7901FC
:1019B000590110E063E070E0812F0E94340AF501C4
:1019C00081935F01882341F11F5F143099F710E084
:1019D000F70181917F018D31D1F08831C1F08A51B9
:1019E0008230A8F01F5F143099F7812F26960FB62A
:1019F000F894DEBF0FBECDBFDF91CF911F910F9145
:101A0000FF90EF90DF90CF90BF90AF90089560E18E
:101A100070E0812F0E94510AE12EF12C83EE93E0B9
:101A20000197F1F7402F70E060E0812F0E94D0060F
:101A30004FEF62E070E0812F0E94D006B601CD2802
:101A400089F4809121019091220101968115F0EC99
:101A50009F0798F1909322018093210160912101C9
:101A600070912201812F0E94BB0661E070E0812FFE
:101A70000E94510A27E02E9DC0012F9D900D112438
:101A80009C01285B3B4F7901F9011182108222E011
:101A900030E0AE014B5F5F4F68E270E0812F0E9443
:101AA000960B8D819E81982789279827F70193832C
:101AB000828316821582148298CF80E090ECCACF80
:101AC000CF92DF92EF92FF921F93CF93DF93EC01BF
:101AD0007B016A018C85843048F40E94860A882341
:101AE00019F08C850E94610A84E08C87F70182815D
:101AF0009381A481B5810097A105B10551F490E0CF
:101B000080E0DF91CF911F91FF90EF90DF90CF9019
:101B100008958F3F9F4FAF4FBF4F89F3809164046B
:101B2000811103C084E08C87EACF70E060E081E23D
:101B30000E94BF0C182F8C87843008F780E591E055
:101B40000E948D01A7014E5F5F4F24E030E06CE002
:101B500070E0812F0E949506B601812F0E94A60693
:101B600064E070E0812F0E94510A0E9418046B010A
:101B70007C018C850E94860A873109F18C31F9F04D
:101B8000882309F4BCCF0E941804AB01BC014C1996
:101B90005D096E097F098D859E85B0E0A0E0841700
:101BA0009507A607B70738F061E070E080E090E0A5
:101BB0000E94E503DECF8C850E946D0AB3CF81E0E1
:101BC00090E09FCF0F931F93CF93DF93EC018B0196
:101BD000888D843010F40E946D0A80916404811114
:101BE00007C094E0988FDF91CF911F910F910895D6
:101BF000B80182E00E94BF0C888F843030F41D87CA
:101C00000C871A8E198E81E0EECF80E0ECCF7F92A8
:101C10008F929F92AF92BF92CF92DF92EF92FF92FC
:101C20000F931F93CF93DF9300D0CDB7DEB7782EFD
:101C30008B014A01590122E030E0AE014F5F5F4F56
:101C400064E270E00E94960BE980FA80FE24EF24A3
:101C5000FE24E00EF11E9701377040916404072DB9
:101C600010E0433309F042C0085F1F4F102F0027D8
:101C7000110F110F110FC901800F911F4733C9F1C7
:101C8000A9014A0D5B1D4130584098F160E078E0B1
:101C90006B01C21AD30AA601B4010E94C405A501B2
:101CA0004C195D09B4016C0D7D1DC8010E94C4056D
:101CB000EA0CFB1CF982EA8222E030E0AE014F5FC1
:101CC0005F4F64E270E0872D0E9495060F900F90A1
:101CD000DF91CF911F910F91FF90EF90DF90CF9008
:101CE000BF90AF909F908F907F900895005F1F4F9F
:101CF000BDCFA501B401DACFEF92FF921F93CF932E
:101D0000DF9300D0CDB7DEB7182F22E030E0AE0170
:101D10004F5F5F4F60E270E00E94960BE980FA80AF
:101D2000FE24EF24FE2422E030E0AE014F5F5F4F3F
:101D300060E270E0812F0E94960B89819A8198273A
:101D400089279827E816F90689F487E0189FF0019B
:101D50001124E85BFB4FF582E482C7010F900F90DE
:101D6000DF91CF911F91FF90EF9008957C01DBCF21
:101D70001F93CF93DF93182F80E591E00E948D0190
:101D8000812F0E947C0EEC0163E070E0812F0E94A5
:101D9000340A873121F08C3111F0D0E0C0E0CE015F
:101DA000DF91CF911F910895CF93DF93EC018C8544
:101DB000843060F40E94860A873111F08C3131F44E
:101DC0008C850E94B80E8115984088F3DF91CF91E1
:101DD0000895FC018485843010F40C94B80E90E0D2
:101DE00080E008959F92AF92BF92CF92DF92EF92E0
:101DF000FF920F931F93CF93DF938C015B01942E7F
:101E0000E52EFC01C688D788F08C80E591E00E9421
:101E10008D018F2D0E947C0EC92DDE2D8C179D0704
:101E200008F4EC019E01A501B6018F2D0E94070E5A
:101E3000F801868997898C0F9D1F978B868BCE0121
:101E4000DF91CF911F910F91FF90EF90DF90CF9096
:101E5000BF90AF909F9008958F929F92AF92BF9244
:101E6000CF92DF92EF92FF920F931F93CF936C016B
:101E70005B018A01FC01C485C430F0F57A01413070
:101E8000584018F0E12C88E0F82E80E591E00E949F
:101E90008D018C2F0E947C0E4C0163E070E08C2F32
:101EA0000E94340A873111F08C3149F58E149F0459
:101EB00060F380E591E00E948D019701A50170E03B
:101EC00060E08C2F0E94070E60E270E08C2F0E9471
:101ED000510A62E070E08C2F0E94340A84FD17C022
:101EE00063E070E08C2F0E94340A81110BC081E006
:101EF00090E0F6019383828310E000E010C0F12CA3
:101F0000E12CD7CF80E591E00E948D01E2CF40E146
:101F100062E070E08C2F0E94D006EF2841F3C801E8
:101F2000CF911F910F91FF90EF90DF90CF90BF90D6
:101F3000AF909F908F900895FF920F931F93CF9330
:101F4000DF9300D0CDB7DEB7F82E22E030E0AE014F
:101F50004F5F5F4F66E270E00E94960B09811A8125
:101F600010270127102722E030E0AE014F5F5F4FBE
:101F700066E270E08F2D0E94960B89819A819827E6
:101F8000892798270817190749F4C8010F900F905F
:101F9000DF91CF911F910F91FF9008958C01E3CFB6
:101FA0001F93CF93DF93182F87E0189FE001112430
:101FB000C85BDB4F88819981009761F480E591E0EF
:101FC0000E948D01812F0E949C0F2E81821B9109FE
:101FD00099838883DF91CF911F910895FC018485B7
:101FE000843010F40C94D00F90E080E008954F926C
:101FF0005F927F928F929F92AF92BF92CF92DF9229
:10200000EF92FF920F931F93CF93DF9300D0CDB742
:10201000DEB7782E6B014A01A82EB12C27E0829FF3
:10202000C0011124FC01E85BFB4F7F01008111819D
:1020300080E591E00E948D010815190554F4872D63
:102040000E949C0FF70126818C01021B110911834C
:1020500000830115110529F563E070E0872D0E94CA
:10206000340A843159F0882349F001E010E08C31C2
:1020700011F410E000E0119501951109C8010F90CD
:102080000F90DF91CF911F910F91FF90EF90DF9014
:10209000CF90BF90AF909F908F907F905F904F9028
:1020A0000895801691060CF4840187E08A9DF00162
:1020B0008B9DF00D1124E85BFB4FE280F380C1148F
:1020C000D10451F12701F7E05F22872D0E94870696
:1020D000840D951D20916404273309F453C09801A1
:1020E000240D351D2130384008F44CC020E038E084
:1020F000490184189508A401B6010E94A909260186
:10210000480C591C6801C818D908872D0E948706F9
:10211000A601B2010E94A909E00EF11E87E08A9D86
:10212000F0018B9DF00D1124E85BFB4FF382E282FE
:1021300020813181201B310B318320838681800FE8
:10214000912F911D8A3F910510F4232BF1F487E024
:102150008A9DF0018B9DF00D1124E85BFB4F1682E8
:10216000F982EA8222E030E0AE014F5F5F4F68E221
:1021700070E0872D0E94950660E470E0872D0E9434
:10218000510A7CCFA801B601C5CF868377CFCF9304
:10219000DF93FC01218D328D2115310529F48FEF5C
:1021A0009FEFDF91CF910895EC01808D4217530787
:1021B00008F0A9010E94F70F1816190684F7298D57
:1021C0003A8D281B390B3A8F298FEBCF0F931F9332
:1021D000CF93DF931F92CDB7DEB7FC01218D328DF7
:1021E000232B41F48FEF9FEF0F90DF91CF911F9141
:1021F0000F9108958C0141E050E0BE016F5F7F4F69
:10220000FC01808D0E94F70F181619065CF7F80183
:10221000818D928D0197928F818F898190E0E4CF9B
:10222000CF93DF931F92CDB7DEB741E050E0BE0100
:102230006F5F7F4FFC0184850E94F70F1816190607
:1022400034F4898190E00F90DF91CF9108958FEF62
:102250009FEFF9CFFC018485843010F40C94F70FC4
:1022600090E080E008950F931F93CF93DF9300D009
:10227000CDB7DEB7FC0124852430E0F48C0180E585
:1022800091E00E948D0122E030E0AE014F5F5F4F90
:1022900060E170E0F80184850E94960B89819A8143
:1022A0009827892798270F900F90DF91CF911F9142
:1022B0000F91089590E080E0F6CF0F931F93CF9396
:1022C000DF9300D0CDB7DEB7FC0124852430E0F4E5
:1022D0008C0180E591E00E948D0122E030E0AE01AA
:1022E0004F5F5F4F64E070E0F80184850E94960BB9
:1022F00089819A819827892798270F900F90DF91DD
:10230000CF911F910F91089590E080E0F6CFDC010E
:1023100087EC91E08D939D9384E0FB0101900D92F9
:102320008A95E1F70895EF92FF920F931F93CF9351
:10233000DF9300D000D0CDB7DEB78C017B01FB016D
:1023400084858430A8F087EC91E0F8019183808344
:102350001282138214821582C8010F900F900F9081
:102360000F90DF91CF911F910F91FF90EF90089503
:1023700080E591E00E948D0124E030E0AE014F5FE6
:102380005F4F6CE070E0F70184850E94960BBE0100
:102390006F5F7F4FC8010E948711DECF0F931F939D
:1023A000CF93DF93CDB7DEB728970FB6F894DEBF93
:1023B0000FBECDBF8C01D80159964D915C915A97B3
:1023C0004115510551F0ED91FC91048CF58DE02DF6
:1023D00070E060E0C8010995EECFF801808D0E94A1
:1023E000D00F892BB1F148E050E0BE016F5F7F4F05
:1023F000D80158968C910E94F70F18161906F4F41C
:10240000D801509684E0FE01319601900D928A9594
:10241000E1F78D8190E0982F88272E81820F911D02
:10242000F801958B848B8F81282F30E0322F222763
:102430008885820F932F911D928F818F28960FB6DA
:10244000F894DEBF0FBECDBFDF91CF911F910F91EA
:10245000089590E080E0F2CF4F925F926F927F926A
:102460008F929F92AF92BF92CF92DF92EF92FF92A4
:102470000F931F93CF93DF93CDB7DEB763970FB65C
:10248000F894DEBF0FBECDBF7C016B013A01FB01AA
:1024900020E090E080E06AE03191332309F461C0EC
:1024A00040ED430F4A3008F04DC0689FA001699F7E
:1024B000500D1124CA01C097830F911D37FD9A95C5
:1024C0008F3F910549F340F3F701428153816481C5
:1024D000758180913A0590913B05A0913C05B091A2
:1024E0003D05481759076A077B0709F40DC28701A4
:1024F000085F1F4F0E9418046F7077277C5FC80128
:102500000E94E20D813009F004C287EC91E09A83C9
:102510008983F70182819381A481B5818B839C8318
:10252000AD83BE8345E350E0BE016F5F7F4FC801BE
:102530000E942507892BA9F5D12CC12CC8010E9426
:10254000790A17C03E3209F0BFCF233009F4BCCF5F
:10255000D301A20FB11D12968C932F5F90E080E003
:102560009BCF233009F0B0CFF3018583CC24C394F3
:10257000D12CC60163960FB6F894DEBF0FBECDBF57
:10258000DF91CF911F910F91FF90EF90DF90CF904F
:10259000BF90AF909F908F907F906F905F904F9083
:1025A00008950E941804F7017783668342E050E0A3
:1025B000B7016A5F7F4FC8010E94F20E81E090E090
:1025C0009A83898342E050E0BE016F5F7F4FC8016C
:1025D0000E94F20E80E091E09A83898342E050E00D
:1025E000BE016F5F7F4FC8010E94F20E1A821982EE
:1025F00042E050E0BE016F5F7F4FC8010E94F20EC3
:1026000042E050E0BE016F5F7F4FC8010E94F20EB2
:1026100042E050E0BE016F5F7F4FC8010E94F20EA2
:102620005601F6018081882301F16501F60181914F
:102630002F01882311F08E32B1F446018A189B08CD
:102640001814190474F48D8641E050E0BE01635FF4
:102650007F4FC8010E94F20EA401B501C8010E947B
:10266000F20E5201DECF6201E1CF1D8641E050E063
:10267000BE01635F7F4FC8010E94F20EC12CDD24B2
:10268000D394DA82C98242E050E0BE016F5F7F4F8F
:10269000C8010E94F20EDA82C98242E050E0BE0117
:1026A0006F5F7F4FC8010E94F20EC8010E94ED0AC1
:1026B000892B09F441CFF3E0AF2EB12C230122E0A6
:1026C000420E511CD4C0F70142815381648175814F
:1026D000808D918DA28DB38D481759076A077B07AE
:1026E00009F008C1848D958DC59709F003C181A1BA
:1026F00092A15DEFC52EDD24DA940C970CF4ADC0E9
:102700004CE050E0BE016F5F7F4FC8010E94C710D0
:102710008B819C819827892798279A8B898BF70131
:102720004681578129813A814217530709F0E7C052
:1027300097FFE5C08F7092703BEFC32EDD24DA94D3
:10274000892B09F08AC06F807884762467247624E8
:102750002AEFC22EDD24DA946114710409F47DC0DD
:10276000D12CC12C8D819E81982789279827C81646
:10277000D906F8F441E050E0BE01635F7F4FC80125
:102780000E94C7104D85442331F050E070E060E0B6
:10279000C8010E94C7108D858111ECCF44E050E044
:1027A00070E060E0C8010E94C710FFEFCF1ADF0A97
:1027B000D9CF912C812C41E050E0BE016D5E7F4F5E
:1027C000C8010E94C7104B89842F807C09F06CC01F
:1027D000442331F050E070E060E0C8010E94C7106F
:1027E0008B898111E8CF42E050E0BE01615F7F4FED
:1027F000C8010E94C71042E050E0BE01635F7F4FF6
:10280000C8010E94C71044E050E070E060E0C801D9
:102810000E94C71042E050E0BE016F5E7F4FC801CA
:102820000E94C7108F85988949895A8981159140DE
:1028300009F043C0CD84DE84DC24CD24DC2481E097
:10284000C816D104D1F54115544009F04AC044E0FE
:1028500050E0B201C8010E94C71021E0A21AB108DD
:1028600009F46CCEFFEFCF16DF0609F067CE0E94A9
:1028700018043B014C01C8010E94CE11181619061C
:102880000CF421CF0E941804661977098809990968
:10289000693873418105910548F562E370E080E095
:1028A00090E00E94E503E7CF41E050E070E060E097
:1028B000C8010E94C7101B8A93CF5427452754276D
:1028C00070E060E0C8010E94C710FFEF8F1A9F0AF6
:1028D0006814790409F06FCF96EFC92EDD24DA94DD
:1028E000BCCFE7EFCE2EDD24DA94B7CFCC24CA9448
:1028F000DC2CB3CF6EEFC62EDD24DA94AECF4CEFD6
:10290000C42EDD24DA94A9CF8EEFC82EDD24DA940C
:1029100030CED12CC12C2DCECF92DF92EF92FF92F0
:102920000F931F93CF93DF93CDB7DEB7AF970FB65B
:10293000F894DEBF0FBECDBF7C016A0107EC11E049
:102940001A8309831C861B8688EE93E0A0E0B0E022
:102950008D879E87AF87B88B8FE391E09A878987B1
:10296000188F0F8B198E1A8E1B8E1C8E84E089A3F4
:102970001BA70AA71CA61DA61EA61FA680912E0592
:1029800090912F05A0913005B09131058EA39FA3A2
:10299000A8A7B9A78B839C83AD83BE8318861F82AB
:1029A000AE01465D5F4FCE0101960E942C12813030
:1029B0009105B1F4D701ED91FC910488F589E02DE2
:1029C0001DA30CA38CA59DA5AEA5BFA58EA39FA3FB
:1029D000A8A7B9A7A601BE016C5D7F4FC7010995E5
:1029E000AF960FB6F894DEBF0FBECDBFDF91CF918B
:1029F0001F910F91FF90EF90DF90CF900895CF92AD
:102A0000DF92EF92FF920F931F93CF93DF93CDB797
:102A1000DEB7AF970FB6F894DEBF0FBECDBF8C0107
:102A20006B017A0187EC91E09A8389831B821C8277
:102A30001D821E821C861B8648EE53E060E070E01B
:102A40004D875E876F87788B2FE331E03A87298740
:102A5000988F8F8B198E1A8E1B8E1C8E24E029A3C3
:102A60009BA78AA71CA61DA61EA61FA6D8011C965A
:102A70008C91843060F40E94860A882321F0F8014A
:102A800084850E94610A84E0D8011C968C93809111
:102A90002E0590912F05A0913005B09131058EA3A0
:102AA0009FA3A8A7B9A78B839C83AD83BE831886F9
:102AB0001F82AE01465D5F4FB601CE0101960E94B6
:102AC0002C120097C1F0D801ED91FC910684F78596
:102AD000E02D87EC91E09DA38CA38CA59DA5AEA5D0
:102AE000BFA58EA39FA3A8A7B9A7A701BE016C5D30
:102AF0007F4FC8010995AF960FB6F894DEBF0FBEA1
:102B0000CDBFDF91CF911F910F91FF90EF90DF909C
:102B1000CF9008957F928F929F92AF92BF92CF9263
:102B2000DF92EF92FF920F931F93CF93DF93CDB776
:102B3000DEB7A6970FB6F894DEBF0FBECDBF8C01EF
:102B4000762E942E852E20E2A22ECE0101967C01B7
:102B5000DC01EA2D1D92EA95E9F76801F3E4CF0E56
:102B6000D11C87EC91E09AA389A38FEF8BA38CA350
:102B70008DA38EA343E450E0BE016F5D7F4FC6017D
:102B80000E942507019609F4BFC081E089838A83EA
:102B900086E0B82EBB821C82D80114966D917D917F
:102BA0008D919C9117970E9417326D837E838F833E
:102BB000988789869A8680E890E09C878B874CE18D
:102BC00050E0B701C6010E94F20EFE0137968AE17D
:102BD000DF011D928A95E9F74801B8E08B0E911C40
:102BE000F401D70101900D92BA94E1F740E150E071
:102BF000B701C6010E94F20EF7011192AA94E9F7FB
:102C000096E0A92EB12C40E250E0B701C6010E9427
:102C1000F20EF1E0AF1AB108B1F783E6898392E8CA
:102C20009A8393E59B838C8385E38D8381E08E83F8
:102C30007F829DE3988797E099878A8786E0F401F1
:102C4000DE011B9601900D928A95E1F78CE0898B4D
:102C50008A8B62E272E0CE0143960E940733D8016C
:102C60001B966C91CE0149960E949001F8016485F3
:102C7000CE014B960E949001D8011D966C91CE0119
:102C80004D960E9490014EE150E0B701C6010E94AE
:102C9000F20EB3E07B121EC082E3898384E08A8354
:102CA000F80196859B8397859C8390899D83918964
:102CB0009E8396E39F838887828D8987838D8A8709
:102CC000848D8B87858D8C874CE050E0B701C601E1
:102CD0000E94F20E87E3898386E08A8391E09B83DA
:102CE00093E09C838D838FE08E838AE38F838BE3D5
:102CF00088878FEF898749E050E0B701C6010E94BD
:102D0000F20EC6010E94ED0AA6960FB6F894DEBF39
:102D10000FBECDBFDF91CF911F910F91FF90EF902C
:102D2000DF90CF90BF90AF909F908F907F9008954D
:102D30000F931F93CF93DF93EC01FB0101900020D1
:102D4000E9F78F01061B170B8A819B81A801480FA9
:102D5000591F2C813D812417350768F0288139815E
:102D6000A801820F931F0E94EE324A815B81400FBF
:102D7000511F5B834A83DF91CF911F910F9108957B
:102D80000F931F93CF93DF93EC0188819981009774
:102D900059F02A813B812617370730F081E0DF9117
:102DA000CF911F910F9108958B016F5F7F4F0E940C
:102DB0002432009759F0998388831B830A832C81DE
:102DC0003D81232B59F7FC011082E8CF80E0E7CF4B
:102DD0003F924F925F926F927F928F929F92AF92AB
:102DE000BF92CF92DF92EF92FF920F931F93CF93F8
:102DF000DF93CDB7DEB7EA970FB6F894DEBF0FBE0C
:102E0000CDBF7C012A013B0169010E9418044B01DE
:102E10005C0187010D5B1F4FC8010E94CE1118167F
:102E200019069CF00E941804681979098A099B09FF
:102E3000461657066806790608F466C162E370E034
:102E400080E090E00E94E503E7CF42E250E0BE015F
:102E50006F5F7F4FC8010E94C71089818230D1F017
:102E6000312C832DEA960FB6F894DEBF0FBECDBF8E
:102E7000DF91CF911F910F91FF90EF90DF90CF9056
:102E8000BF90AF909F908F907F906F905F904F908A
:102E90003F900895F801848995898334910501F75D
:102EA0006D817E818F8198850E9417324B015C0174
:102EB000F60180829182A282B38246E050E0B7019F
:102EC000685F7F4FCE014D960E94E132892B41F61B
:102ED000F70180819181A281B38188169906AA06A3
:102EE000BB0608F4BDCF84819581A681B781881582
:102EF0009905AA05BB0508F4B3CF89899A89AB89DE
:102F0000BC8986879787A08BB18B4EEC50E070E030
:102F100060E0C8010E94C710312CC701829698ABAF
:102F20008FA7F701B696FAABE9AB08969CAB8BABD3
:102F300067019AE1C90ED11CBD96FEABEDABC7018E
:102F4000429698AF8FABFD97FAAFE9AF4701FEE12C
:102F50008F0E911CF801818D928D181619060CF0B8
:102F600080CFC8010E94E6108333910509F4B2C0F6
:102F700014F58130910509F464C044F4892B51F3B0
:102F8000C8010E94E610AC01552775C08330910539
:102F900009F462C00697A1F7C8010E94E610B82E96
:102FA00044E050E0B401C8010E94C710EB2DE4508A
:102FB000FF0BAF0160C08A33910509F45FC084F54F
:102FC00085339105B1F1C697D9F6C8010E94E61084
:102FD0005C01B601CE0189960E9487118BA59CA544
:102FE000ADA5BEA5892B8A2B8B2BB1F0EDA9FEA92F
:102FF0004080518062807380B601CE0183960E942A
:1030000087118DA19EA1AFA1B8A5A50148165906AB
:103010006A067B0609F0B8CF44E050E0B60118C05C
:103020008B33910509F440C08F3F910509F492CF8D
:10303000A7CFC8010E94E610C8010E94E610382EF2
:1030400089CFC8010E94E61044E050E06FA978AD36
:10305000C8010E94C7107ECFC8010E94E610B82E9A
:1030600044E050E069AD7AADC8010E94C7108B2DD5
:103070008450990BAC0170E060E0EACFC8010E9477
:10308000E61044E050E069A97AA9C8010E94C7107F
:10309000F70166A177A180A591A50E94173266A3CA
:1030A00077A380A791A756CFC8010E94E61044E0FD
:1030B00050E06BA97CA9C8010E94C710F70162A566
:1030C00073A584A595A50E94173262A773A784A74C
:1030D00095A740CFC8010E94E61044E050E06FA5DC
:1030E00078A9C8010E94C710F70162A173A184A149
:1030F00095A10E94173262A373A384A395A366A728
:1031000077A780AB91AB26CF33243A94AACE0F9306
:103110001F93CF93DF93CDB7DEB762970FB6F894C6
:10312000DEBF0FBECDBF8C01CB014AE0BE016F5F99
:103130007F4F0E944E2DBE016F5F7F4FC8010E94DE
:10314000981662960FB6F894DEBF0FBECDBFDF9122
:10315000CF911F910F9108953F924F925F926F927E
:103160007F928F929F92AF92BF92CF92DF92EF9217
:10317000FF920F931F93CF93DF93CDB7DEB7A19745
:103180000FB6F894DEBF0FBECDBF5C010DB71EB702
:1031900019A308A360E070E0CB010E94E503D5010C
:1031A00057968D919C915897912C029709F495C050
:1031B00056968C9156978F5F56968C935697549649
:1031C0002D913C91232B19F0992493947FC0833047
:1031D000D8F7F501808191810E94CD07882309F4F9
:1031E0003CC38E010F5F1F4F3801D501ED91FC915B
:1031F00080819181DC01ED91FC910084F185E02DCD
:103200000995181619060CF028C3D501ED91FC910B
:1032100045E050E0BE01695E7F4F808191810E9450
:103220002404009711F3059709F04AC0888D998D01
:10323000982789279827998F888FEA8CFB8CFE2402
:10324000EF24FE24FB8EEA8E892BD1F18F89811128
:1032500069C00E941804F50166837783808791878F
:103260002789308D4A8D5B8D232B09F056C0288D20
:10327000398D2130310509F050C049305105E1F058
:10328000483C510519F044305105D1F4D5011E9642
:103290006D937D938D939C935197E1E0F0E0589668
:1032A000FC93EE935797C5010E94C22160E070E045
:1032B000CB010E94E50399CF83E090E0908F878B4C
:1032C000D5018D919C910E94E007912CD5015696D5
:1032D0008C915697815056968C93892DE8A1F9A12F
:1032E0000FB6F894FEBF0FBEEDBFA1960FB6F894CF
:1032F000DEBF0FBECDBFDF91CF911F910F91FF9029
:10330000EF90DF90CF90BF90AF909F908F907F9085
:103310006F905F904F903F9008954530510509F0B0
:1033200064CFCECFF50180819181F1E0EF16FF06E9
:1033300040F0D50158961C921E9257970E94E007C4
:1033400054CF8DB69EB697012F5F3F4FEDB7FEB7B6
:10335000E21BF30B0FB6F894FEBF0FBEEDBF0DB727
:103360001EB70F5F1F4FA701B801DC018D919C9123
:103370000E9424048E159F0509F06AC0EA8DFB8D1A
:10338000E00FF11F10820E941804F5016683778315
:10339000808791878F89813109F44AC258F5863038
:1033A000D1F08F3009F4AEC0823051F5D501579677
:1033B0008D919C915897892B71F4E1E0F0E058963B
:1033C000FC93EE935797C5010E94C22160E070E024
:1033D000CB010E94E503488D598DD12CC12CF12CD5
:1033E000E12C08EC10E030E020E060E0C5010E9434
:1033F000271D12C08D31D1F258F4843109F482C0F6
:10340000F501108E178A808191810E94E00704C027
:10341000893241F08733A1F70FB6F8949EBE0FBEF4
:103420008DBEE3CE84819581892B39F480E490E0D0
:103430000E94372BF50195838483EA8CFB8CE00E88
:10344000F11E1A830983FC82EB820E151F0530F0F2
:103450000FB6F8949EBE0FBE8DBE32CF40E450E052
:10346000B801D50114968D919C910E940E33D5011F
:103470001496ED91FC9117AEC3010E94A021FC01AE
:103480008081918100E510E08E159F0560F48981AF
:103490009A81009799F12B813C818217930770F5EF
:1034A0000E941E2D8B01D5018D919C910E94E007F9
:1034B000D501ED91FC91119714968D919C911597E2
:1034C000918780871387028758961C921E92579780
:1034D0000E941804DC01CB0188589341A109B1096D
:1034E000F50182879387A487B58786839783A08712
:1034F000B18786879787A08BB18B8ECF60E070E015
:10350000CB01D0CF888D998DD50155969C938E9304
:1035100054974A8C5B8C6801C40CD51C1D8F0C8F92
:10352000DF8ECE8E0C151D0508F013C1F801E0806A
:10353000F180CE014C960E94A021DC018D919C91DE
:103540008C159D0508F005C18C8D9D8DFC01208199
:10355000213459F401960E94002D4EE0342E380E8D
:10356000069744F033243A9405C0CE014C960E944D
:10357000B321382EF6E7EF16F2E7FF0609F406C18D
:1035800038F531E6E31632E7F30609F4E6C044E61F
:10359000E41642E7F40609F478C050E7E5165DE664
:1035A000F50609F037C18C8D9D8D8C159D0508F0B1
:1035B000D0C0FC0120812134A9F501960E94002D84
:1035C0003EE0F32EF80E069794F1FF24FA942FC0F4
:1035D00084E6E81687E7F80609F4A2C096E7E9163C
:1035E00097E7F90609F4E9C0A1E6EA16A7E7FA06A3
:1035F00009F010C1CE014C960E94A021DC018D91F2
:103600009C918C159D0508F0A4C061E0832D0E945B
:103610001203CE014C960E94B321BC01832D0E945F
:103620004E0397C0CE014C960E94B321F82ECE01D6
:103630004C960E94A0210C8D1D8D69E272E0C8019C
:103640000E94FE3260E0892B79F06CE272E0C801E2
:103650000E94FE32892B39F060E372E0C8010E94BB
:10366000FE32892B49F461E08F2D0E941203CE01B6
:103670004C960E94A02197CF64E372E0C8010E949B
:10368000FE32892BA1F762E0EFCF7A8A698A1C8A21
:103690001B8A00E110E01E8B0D8B67E372E0CE0108
:1036A00041960E949816032D10E0B801CE01419674
:1036B0000E948718F801E45DFD4F8491F801E85EEF
:1036C000FD4FF4900C5F1D4FF801049160E070E035
:1036D000002389F081110E94BB02E02FF0E0EE0F81
:1036E000FF1FE650FE4FA591B491EC91FE2261E0E0
:1036F00070E009F460E0CE0141960E9487180B89C2
:103700001C890150110929893A89D12CC12CF12C2D
:10371000E12C50E040E064E1C5010E94271D19C082
:10372000CE014C960E94A021DC018D919C918C15BC
:103730009D0578F461E0832D0E941203CE014C9622
:103740000E94B32161E0892B09F460E0832D0E947F
:10375000E402F501158A148A5FCE7A8A698A1C8A86
:103760001B8AE0E1F0E0FE8BED8B6AE372E0CE01B4
:1037700041960E949816632D70E0CE0141960E94FA
:103780008718832D0E94AB03BC01B5CF3982BFE1FE
:10379000B315F8F2E32DF0E0EE0FFF1FE05CFD4FF4
:1037A0002591349121153105A1F2E1E02C383E0735
:1037B00081F2C301F9010995CCCFCE014C960E944C
:1037C000A0218C8D9D8D9C01201B310B421A530A28
:1037D0009A8389835C824B825E824D82398AFFE1C3
:1037E000F31508F4B6CFE32DF0E0EE0FFF1FE0581D
:1037F000FD4F259134912115310509F4AACF01E03F
:103800002B38300709F4A5CFB301CE014196F90159
:1038100009959FCFD50154964D915C91D12CC12C27
:10382000F12CE12C02E010E030E020E060E074CF09
:103830008A8D9B8D800F911F1A8309839C838B83B4
:103840000817190708F0E8CDC3010E94A021D5018F
:1038500055961C921E925497DFCD0E9418042B019E
:103860003C01F501808191810E94CD07D5015796D9
:103870002D913C912130310509F05EC0F501811197
:1038800009C046865786608A718A108E178A8081A1
:10389000918119CD86819781A085B185930182019F
:1038A000081B190B2A0B3B0BD901C801893116EFF4
:1038B0009107A105B10548F7893C9F4AA105B105CB
:1038C00090F482859385A485B58593018201081BB8
:1038D000190B2A0B3B0BD901C801893C9F4AA10552
:1038E000B10508F471CCF50186859785A089B18969
:1038F00093018201081B190B2A0B3B0BD901C8014C
:1039000081379741A105B10508F45ECCD12CC12CBB
:10391000F12CE12C10E000E030E020E050E040E04D
:1039200066E0C5010E94271DD5011E964D925D924D
:103930006D927C92519748CC232B09F045CCF50130
:10394000468557856089718993018201041B150B97
:10395000260B370BB901A801882381F04137574165
:103960006105710508F430CC808191810E94E007E7
:10397000D50158961C921E925797A7CC49385341AF
:103980006105710508F420CC808191810E94E007D7
:10399000D5010D911C91F80160857185808191811F
:1039A00042855385DC01ED91FC916115710599F01B
:1039B0000088F189E02D099521E0019709F020E0C8
:1039C000F8012487948491101CC0F501468657861F
:1039D000608A718A7BCC0684F785E02D27EC31E084
:1039E0003A832983D8011496CD90DD90ED90FC9018
:1039F0001797CB82DC82ED82FE82BE016F5F7F4F24
:103A0000DACF81E090E0D50153969C938E93529744
:103A100012962D913C91F90101900020E9F7319720
:103A20008F01021B130BD12CC12CF12CE12C41E096
:103A300050E06DE1C5010E94271DF5018285938547
:103A4000A485B58586879787A08BB18B3FCC2F92B5
:103A50003F924F925F926F927F928F929F92AF921E
:103A6000BF92CF92DF92EF92FF920F931F93CF936B
:103A7000DF9300D000D000D0CDB7DEB75C016E83FD
:103A80004A013901DC018D919C910E94CD07882368
:103A900009F4D3C08E818D7F09F401C1BE81B63097
:103AA00009F4FDC0BD3109F4FAC0F5018789908D94
:103AB000019709F0C2C081149104B9F4D50154965C
:103AC0008D909C9055978114910479F452968D9124
:103AD0009C915397019609F4C9C053969C938E9379
:103AE0005297D50152968D909C908E818C50893042
:103AF00090F5F50182859385A485B585468157812A
:103B000060857185481759076A077B0710F4AC0177
:103B1000BD011A012B01F2E42F0E311C411C511C76
:103B20000E941804A2019101261B370B480B590B68
:103B3000DA01C901B7FDA0C0C5010E94AC180E94FE
:103B40001804A2019101261B370B480B590BDA010F
:103B5000C901B7FFF1CFC80105966114710411F4D2
:103B600085E090E0512C412CE114F10409F026018C
:103B7000480E591EBE81B9839824892498249B82BB
:103B80008A82C8018C0D9D1D9827892798279D83BF
:103B90008C83D501ED91FC9180819181DC01ED91C7
:103BA000FC910280F381E02D45E050E0BE016F5FA3
:103BB0007F4F09954C0160E070E0CB010E94E50366
:103BC000BE81BB2381F101151105A9F0D501ED914D
:103BD000FC9180819181DC01ED91FC910280F38167
:103BE000E02DA801B3010995880E991E60E070E0F0
:103BF000CB010E94E503C114D104A9F0D501ED91D8
:103C0000FC9180819181DC01ED91FC910280F38136
:103C1000E02DA601B7010995880E991E60E070E0BD
:103C2000CB010E94E5038414950479F1F501108E0F
:103C3000178A808191810E94E00726960FB6F8943A
:103C4000DEBF0FBECDBFDF91CF911F910F91FF90CF
:103C5000EF90DF90CF90BF90AF909F908F907F902C
:103C60006F905F904F903F902F90089581E090E08B
:103C7000F501938B828B35CFD50156968C918111AE
:103C80006ACFC5010E94AC1866CF0E941804D50106
:103C90001A966D937D938D939C931D97CECF81142F
:103CA000910409F058CF0ACFCF92DF92EF92FF92A2
:103CB0000F931F93CF93DF93CDB7DEB7C658D109CB
:103CC0000FB6F894DEBF0FBECDBF8C01CE010196BA
:103CD000CF57DF4F99838883C158D040CD57DF4FEE
:103CE00019821882C358D04080E890E0CB57DF4F4C
:103CF00099838883C558D0406FE472E0CE018F5716
:103D00009F4F0E94981666E070E0CE018F579F4F3C
:103D10000E948718B801CE018F579F4F0E949816B6
:103D2000CD57DF4F08811981C358D0400150110988
:103D3000CF57DF4F28813981C158D040D12CC12CB9
:103D4000F12CE12C50E040E064E182EB96E00E942F
:103D5000271DCA57DF4F0FB6F894DEBF0FBECDBF89
:103D6000DF91CF911F910F91FF90EF90DF90CF9057
:103D70000895CF92DF92EF92FF920F931F93CF930C
:103D8000DF93CDB7DEB7C658D1090FB6F894DEBFC2
:103D90000FBECDBF8C01CE010196CF57DF4F998367
:103DA0008883C158D040CD57DF4F19821882C3583D
:103DB000D04080E890E0CB57DF4F99838883C55887
:103DC000D0406FE472E0CE018F579F4F0E9498164B
:103DD000B801CE018F579F4F0E94871870E060E0B6
:103DE000CE018F579F4F0E948718CD57DF4F088114
:103DF0001981C358D04001501109CF57DF4F288196
:103E00003981C158D040D12CC12CF12CE12C50E08B
:103E100040E064E182EB96E00E94271DCA57DF4F25
:103E20000FB6F894DEBF0FBECDBFDF91CF911F91CB
:103E30000F91FF90EF90DF90CF9008958F929F9217
:103E4000AF92BF92CF92DF92EF92FF920F931F93A8
:103E5000CF93DF93CDB7DEB7C75AD1090FB6F89429
:103E6000DEBF0FBECDBF0E947E076B017C01CE017D
:103E700001964C01CE55DF4F99838883C25AD040BA
:103E8000CC55DF4F19821882C45AD04020E8A22EA8
:103E9000B12CCA55DF4FB982A882C65AD0406FE410
:103EA00072E08F559F4F0E94981661E070E0CE013E
:103EB0008E559F4F0E9487188E010F571F4F23E08A
:103EC00045E0C701B6010E94192BB801CE018E55FD
:103ED0009F4F0E949816CC55DF4F08811981C45A14
:103EE000D04001501109CE55DF4F28813981C25A87
:103EF000D040D12CC12CF12CE12C50E040E064E109
:103F000082EB96E00E94271D0E94AA078C01CE55E5
:103F1000DF4F99828882C25AD040CC55DF4F198238
:103F20001882C45AD040CA55DF4FB982A882C65AF7
:103F3000D0406FE472E0CE018E559F4F0E949816DC
:103F400063E070E0CE018E559F4F0E9487184AE0D3
:103F5000BE016F577F4FC8010E94762DBE016F577B
:103F60007F4FCE018E559F4F0E949816CC55DF4F44
:103F700008811981C45AD04001501109CE55DF4F34
:103F800028813981C25AD04050E040E064E182EBA0
:103F900096E00E94271DC955DF4F0FB6F894DEBF8B
:103FA0000FBECDBFDF91CF911F910F91FF90EF908A
:103FB000DF90CF90BF90AF909F908F9008951F9209
:103FC0000F920FB60F9211242F933F934F935F934D
:103FD0006F937F938F939F93AF93BF93EF93FF93D1
:103FE00085E694E00E942702FF91EF91BF91AF9187
:103FF0009F918F917F916F915F914F913F912F9101
:104000000F900FBE0F901F9018951F920F920FB632
:104010000F9211242F938F939F93EF93FF93E0912F
:104020007504F09176048081E0917B04F0917C042A
:1040300082FD1BC0908180917E048F5F8F732091E1
:104040007F04821741F0E0917E04F0E0EB59FB4FD2
:10405000958F80937E04FF91EF919F918F912F9187
:104060000F900FBE0F901F9018958081F4CF1F9274
:104070000F920FB60F9211242F933F938F939F931C
:10408000AF93BF938091C3039091C403A091C503E4
:10409000B091C6033091C20323E0230F2D3758F5AA
:1040A0000196A11DB11D2093C2038093C303909379
:1040B000C403A093C503B093C6038091C703909136
:1040C000C803A091C903B091CA030196A11DB11DF7
:1040D0008093C7039093C803A093C903B093CA0306
:1040E000BF91AF919F918F913F912F910F900FBEF4
:1040F0000F901F90189526E8230F0296A11DB11D61
:10410000D2CF1F920F920FB60F9211242F933F938D
:104110004F935F936F937F938F939F93AF93BF93CF
:10412000EF93FF938091B900887F803609F44AC0ED
:10413000F0F5883209F4A7C018F5803109F49BC066
:10414000B8F4882309F4F9C0883009F494C0FF91C9
:10415000EF91BF91AF919F918F917F916F915F91FF
:104160004F913F912F910F900FBE0F901F90189578
:10417000883109F488C0803251F780939F0314C0BE
:10418000803409F49DC040F48033B9F38833F9F6E4
:1041900080939F0385ECB0C0803509F485C08835D5
:1041A00009F496C0883499F60E947404D0CF8839F7
:1041B00009F48CC038F5883729F050F4883611F0AE
:1041C000803729F683E080933F0410927B0357C029
:1041D000883809F47BC0803919F0803809F0B7CFEE
:1041E00080917B03803208F071C0E0917B0381E015
:1041F0008E0F80937B038091BB00F0E0E55AFC4F6B
:1042000080833DC0803B39F0E0F4803A09F479C006
:10421000883A09F09CCF84E080933F0410925A03BF
:1042200010925903E0913B04F0913C040995809170
:10423000590381110FC081E0809359031092390313
:1042400009C0803C09F4A6CF883C09F4A3CF883B81
:1042500009F07DCFE0915A0381E08E0F80935A03DD
:10426000F0E0E75CFC4F80818093BB0090915A03A3
:104270008091590329C080917C038093BB0085EC19
:104280008093BC0064CF90919E0380919D0398170A
:1042900058F5E0919E0381E08E0F80939E03F0E03D
:1042A000E358FC4F8081E9CFE0919E0381E08E0FBF
:1042B00080939E038091BB00F0E0E358FC4F808325
:1042C00090919E0380919D039817C8F285E8D8CFFE
:1042D000E0919E0381E08E0F80939E038091BB004E
:1042E000F0E0E358FC4F808380913E0481115CCF65
:1042F00081E080933D0484EA8093BC0010923F04E7
:1043000026CF85EC8093BC0010923F0480917B0304
:10431000803230F4E0917B03F0E0E55AFC4F1082EC
:1043200060917B0370E0E0913904F0913A048BE5F1
:1043300093E0099510927B030ACF10929F0334CF2C
:10434000DC01ED91FC911197309761F012962D915F
:104350003C911397E217F30728F401900020E9F746
:10436000ED93FC930895FC0180819181009739F0D1
:10437000228133818217930710F40C94002D90E072
:1043800080E00895AF92BF92CF92DF92EF92FF92BA
:104390000F931F93CF93DF93CDB7DEB7C05CD109E6
:1043A0000FB6F894DEBF0FBECDBF5C01CE018558BD
:1043B0009F4FC554DF4F99838883CB5BD040C35454
:1043C000DF4F19821882CD5BD04080E490E0C15469
:1043D000DF4F99838883CF5BD0406DE372E0CE01DD
:1043E00085549F4F0E94981662E472E0CE01855476
:1043F0009F4F0E9498164AE750E06AE671E0CE01AE
:1044000001960E94452DC354DF4FC880D980CD5BF3
:10441000D040C554DF4FE880F980CB5BD0400AE73D
:1044200010E09E012F5F3F4F50E040E061E1C50189
:104430000E94271DC054DF4F0FB6F894DEBF0FBE99
:10444000CDBFDF91CF911F910F91FF90EF90DF9043
:10445000CF90BF90AF900895E5E6F4E0138212820A
:1044600088EE93E0A0E0B0E084839583A683B783D1
:1044700029E631E03183208325EC30E0358724873D
:1044800024EC30E03787268720EC30E0318B208B1E
:1044900021EC30E0338B228B22EC30E0358B248B07
:1044A00026EC30E0378B268B118E128E138E148EF5
:1044B000E2E0F5E01382128284839583A683B783BA
:1044C0008BE791E091838083EEE0F5E087EC91E06B
:1044D000918380831282138214821582E4E1F5E0D5
:1044E000918380831282138214821582EAE1F5E0BF
:1044F000918380831282138214821582E0E2F5E0B8
:10450000918380831282138214821582E6E2F5E0A1
:10451000918380831282138214821582E2E3F5E094
:10452000918380831282138214821582ECE2F5E07B
:10453000918380831282138214821582E8E3F5E06E
:10454000918380831282138214821582EEE3F5E058
:10455000918380831282138214821582EDEEF6E03D
:10456000918380831282138214821582EEEDF6E02D
:104570001382128229E931E03183208324E02487E9
:1045800028EE33E036872587A1EDB6E013969C939D
:104590008E93129714961D921D921D921C9217973E
:1045A00019961C921E9218971B961C921E921A978F
:1045B0001C961C921C971196FC93EE9340E757E1D2
:1045C00060E070E04483558366837783E2EBF6E036
:1045D000B183A083138212821582148216821782FD
:1045E00010861186128613861486158616861786FF
:1045F000108A118A138A128A158A148A168A108ED2
:10460000178A8FEF9FEF9093B1068093B006E4E492
:10461000F5E0138212828DE891E09183808387E236
:10462000848380E1818782E0828713860895CF9317
:10463000DF93CDB7DEB7E3970FB6F894DEBF0FBEBA
:10464000CDBF789484B5826084BD84B5816084BD1B
:1046500085B5826085BD85B5816085BD80916E0020
:10466000816080936E001092810080918100826051
:10467000809381008091810081608093810080918E
:1046800080008160809380008091B100846080937D
:10469000B1008091B00081608093B00080917A0079
:1046A000846080937A0080917A00826080937A009F
:1046B00080917A00816080937A0080917A0080688E
:1046C00080937A001092C1008EEF8093CB069DEE0E
:1046D0009093CC062AEB2093CD068093CE06809350
:1046E000CF069093D00620E031E0D9010D90002054
:1046F000E9F79D0121503140A0E0B1E0E1E0F0E0B8
:10470000AD01405051404217530784F4AF014F5F51
:104710005F4F6D91EE54F94F818D8627818F463022
:10472000510514F041E050E0FA01EACF80913104E4
:1047300081112AC0109219041092180488EE93E097
:10474000A0E0B0E080931A0490931B04A0931C0493
:10475000B0931D048FE391E09093170480931604A7
:1047600087EC91E090932504809324041092260412
:1047700010922704109228041092290484E0809358
:104780002E0481E08093310483ED93E09093D20373
:104790008093D1038091D0038111ADC060E372E0BA
:1047A00080E090E00E94E503DFB6F8940EE012E0AE
:1047B000E2E2EE2EE2E0FE2E8091CE03811125C0D2
:1047C000F8018491F7019491E82FF0E0EE0FFF1FBC
:1047D000E051FE4FA591B4918C91982321F461E0B2
:1047E0008AE00E94E40261E08AE00E9412038CB534
:1047F00080618CBD8CB580648CBD61E08DE00E94D1
:10480000120361E08BE00E9412038091CE038F5F60
:104810008093CE03DFBEF8010491E02FF0E0EE0FAD
:10482000FF1FEA51FE4F859194919093CD038093A1
:10483000CC03F701E490E092CB0361E08AE00E94B0
:1048400012030E94A80580E591E00E948D0184E397
:104850008093640480E80E9474060E94310B8823D0
:1048600009F4FDC188E00E9474060E941E0B883086
:1048700009F0F5C180E10E9474060E941E0B803190
:1048800009F0EDC180E00E9474060E941E0B182FF3
:104890008111E5C141E050E0BE016F5F7F4F8FE1C4
:1048A00090E00E94A9098981833009F0D8C180E491
:1048B0008093CF0342E06EE170E0812F0E94D0062A
:1048C00042E06FE170E0812F0E94D0061F5F14303C
:1048D00089F740E06EE170E0812F0E94D00640E051
:1048E0006FE170E0812F0E94D0061F5F183089F7BA
:1048F00081E08093D00380E591E00E948D0146E045
:1049000050E06BEC76E089E090E00E94C40587EC13
:1049100091E09A8389831B821C821D821E8244E05F
:1049200050E0BE016D5F7F4F8FE090E00E94C405B4
:104930000091D1031091D203D80192961D921D923D
:104940001D921C929597F80116A217A210A611A607
:104950009A961D921D921D921C929D9780E69AEE4A
:10496000A0E0B0E086AB97ABA0AFB1AF80EA9FE02C
:10497000A0E0B0E082AF93AFA4AFB5AFD801189676
:1049800086E0FD01282F11922A95E9F79801225F10
:104990003F4F94E1F90111929A95E9F7EBECF6E0BB
:1049A00001900D928A95E1F72C5C3F4F39AB28AB13
:1049B000D9011C920E94A82C2FEC37E040E050E077
:1049C0000E94F630DC01CB010196A11DB11DF8015A
:1049D00084839583A683B78380839183A283B383E3
:1049E0005801F3E4AF0EB11CC5010E94790A64E4DA
:1049F00070E0C5010E94E20D882309F499C10E946C
:104A000018042B013C0143E0242E58EEC52E53E040
:104A1000D52EE12CF12C912C812CA8A9B9A98C912F
:104A20008330B9F181118EC1F80184819581A6810D
:104A3000B7810196A11DB11D84839583A683B78399
:104A40000E9418046419750986099709A70196013F
:104A50000E945F31A90161E0C8010E948A1581E0CE
:104A6000A8A9B9A98C93F1E08F169104B1F20E9424
:104A700018046419750986099709D801D6962D91ED
:104A80003D914D915C91D9972617370748075907F3
:104A900010F6C5010E94790AF80184819581A681EA
:104AA000B7810196A11DB11D84839583A683B78329
:104AB0000E941804F801FE966083718382839383B9
:104AC0008A94892809F034C180E591E00E948D0123
:104AD0000091D1031091D203B801625F7F4FCE01E4
:104AE00001960E94871144E050E0BE016D5F7F4F48
:104AF0008FE090E00E94C405B8016A5E7F4FCE014E
:104B000001960E94871144E050E0BE016D5F7F4F27
:104B100081E090E00E94C405B8016E5E7F4FCE0137
:104B200001960E94871144E050E0BE016D5F7F4F07
:104B300085E090E00E94C405B801625E7F4FCE011F
:104B400001960E9487118B819C81AD81BE818093EB
:104B50002E0590932F05A0933005B09331050E9448
:104B6000C0037F73809121019091220168277927EA
:104B7000709322016093210168EE73E080E090E081
:104B80000E94E50387EC91E09A8389831B821C8253
:104B90001D821E8280E591E00E948D0144E050E07C
:104BA000BE016D5F7F4F8FE090E00E94A90980E019
:104BB00091E09093B5068093B4060E941804DC013E
:104BC000CB0188589341A109B1098093BC06909309
:104BD000BD06A093BE06B093BF068093B80690931F
:104BE000B906A093BA06B093BB068093C006909313
:104BF000C106A093C206B093C306E091B206F0913D
:104C0000B30682E592E09187808780E590E0938704
:104C100082878091B2069091B3060E94E0071092BD
:104C2000CA061092C9060E9418044B015C018091CB
:104C3000C9069091CA06019709F451C10E9418044F
:104C4000681979098A099B096035764481059105BF
:104C500008F045C182EB96E00E94AC18E8CF87E3EC
:104C60008093640480E80E9474060E94310B8823BC
:104C700029F188E00E9474060E941E0B8830F1F42E
:104C800080E10E9474060E941E0B182F8031B1F43F
:104C900080E00E9474060E941E0B81110FC041E04B
:104CA00050E0BE016F5F7F4F89E390E00E94A90949
:104CB0008981843019F41093CF031ACE83E3809353
:104CC000640480E80E9474060E94310B882371F10D
:104CD00080E10E9474060E941E0B803139F582E14A
:104CE0000E9474060E941E0B823101F580E00E9432
:104CF00074060E941E0B811119C084E08093CF03BB
:104D000015E51FA741E050E0BE01615D7F4F8BE1DB
:104D100090E00E94C4051EA741E050E0BE01625D24
:104D20007F4F8AE190E00E94C405E2CD10926404B6
:104D300060E177E280E090E00E94E503F0E0E0E0EF
:104D40000995FFCF843001F5F80184819581A68112
:104D5000B7810196A11DB11D84839583A683B78376
:104D60000E9418046419750986099709A70196011C
:104D70000E945F31A90163E0C8010E948A15E2E048
:104D8000A8A9B9A9EC936FCE813069F5D801DA965C
:104D90004D915D916D917C91DD979E012F5F3F4F0D
:104DA000C8010E94E816382EB2E08B1391C08981A9
:104DB0009A81AB81BC81F80184839583A683B783F4
:104DC0000E9418046419750986099709A7019601BC
:104DD0000E945F31A90163E0C8010E948A15A8A959
:104DE000B9A93C9240CE823009F03DCEF80142ADE7
:104DF00053AD64AD75AD9E012F5F3F4FC8010E945A
:104E0000E816382EF5E08F135CC0A8A9B9A92C923A
:104E1000F80182A193A1A4A1B5A1892B8A2B8B2B88
:104E200041F484E893E0A0E0B0E082A393A3A4A3BC
:104E3000B5A3F80186A197A1A0A5B1A5892B8A2BBE
:104E40008B2B61F482A193A1A4A1B5A1B695A795DE
:104E50009795879586A397A3A0A7B1A7F80182A5E8
:104E600093A5A4A5B5A5892B8A2B8B2BA9F482A188
:104E700093A1A4A1B5A1AC01BD0123E076956795EE
:104E8000579547952A95D1F7841B950BA60BB70B21
:104E900082A793A7A4A7B5A7F80186A197A1A0A56B
:104EA000B1A586A797A7A0ABB1AB82A593A5A4A5F2
:104EB000B5A582AB93ABA4ABB5AB88248394912CFE
:104EC000D2CDF6E08F1304C0A8A9B9A91C92CBCD0E
:104ED000BFEF3B12C8CDE8A9F9A91082C4CD8091DB
:104EE000C9069091CA06019709F093CE1092430427
:104EF00010924204109241041092400410923F0418
:104F000081E080933E0410923D0461E082E10E94C2
:104F1000E40261E083E10E94E4028091B9008E7FA7
:104F20008093B9008091B9008D7F8093B90088E4A7
:104F30008093B80085E48093BC0086EA91E090936A
:104F40003C0480933B0487EA91E090933A04809379
:104F500039041092490580914E05823018F098E08E
:104F60009093490580934C0562E370E080E090E007
:104F70000E94E50360914F0584E495E00E942A05B4
:104F800068EE73E080E090E00E94E50360E384E473
:104F900095E00E94B8080BE416E4C8010197F1F708
:104FA00060E384E495E00E94B808C8010197F1F736
:104FB00060E384E495E00E94B80883E592E00197FD
:104FC000F1F760E284E495E00E94B8086091490539
:104FD000606240E084E495E00E94D10884E0809320
:104FE0004A0540E06CE084E495E00E94D10840E08E
:104FF00061E084E495E00E94D1080BE31FE1C80161
:105000000197F1F742E0F42EF0924B0540E066E0A4
:1050100084E495E00E94D10840E062E084E495E0F9
:105020000E94D108C8010197F1F788E080934F05ED
:1050300060E084E495E00E942A0540E061E084E4B9
:1050400095E00E94D108C8010197F1F740E062E0C5
:1050500084E495E00E94D108C8010197F1F760E06F
:1050600080E00E94E8088EE592E00E94610861E01D
:1050700080E00E94E80883E692E00E94610861E017
:1050800083E00E94120361E085E00E94120361E068
:1050900084E00E94120360E085E00E94E40260E088
:1050A00084E00E94E402E0917504F0917604F082BD
:1050B000E0917104F09172041082E0917304F09118
:1050C000740487E6808310927D04E0917904F09166
:1050D0007A0486E08083E0917704F09178048081FF
:1050E00080618083E0917704F0917804808188600A
:1050F0008083E0917704F0917804808180688083D8
:10510000E0917704F091780480818F7D80838FEF28
:1051100090E00E9496028FEF90E00E9496028FEF3F
:1051200090E00E9496028091B0069091B10697FFA0
:1051300022C00E941804E0E5F5E050E040E026E1DE
:10514000249FD001259FB00D11248D01005B1A4FC3
:10515000D801322F1D923A95E9F7608371838283DB
:1051600093834F5F5F4F76964031510549F7109218
:10517000B1061092B0068091B0069091B1064097AA
:10518000CCF5E0E5F5E090E080E024813581232B4B
:1051900009F006C226813781232B09F001C226E1DE
:1051A000289F8001299F100D1124005B1A4F88EE63
:1051B00093E0A0E0B0E0F80183879487A587B687E5
:1051C0008EE19FE1958384831286108A178681E0A1
:1051D000838B0E941804D8016D937D938D939C93CB
:1051E00013978091B0069091B10601969093B10605
:1051F0008093B006CC24CA9423E0D22E2224239498
:10520000312C8FE00E94AB03B601681B790B7695B9
:1052100067957695679583E00E944E0364E670E09B
:1052200080E090E00E94E50360E082E00E94E808F0
:1052300019A618A61BA61AA61DA61CA670E060E05B
:10524000CE0188960E94C01628A539A58111AFC14C
:105250002115310519F0C9010E94D32B19A618A6F2
:105260001DA61CA61BA61AA60E947E071BA21AA298
:105270001DA21CA21FA21EA28E010F5F1F4F22E0C3
:1052800044E00E94192B7C01009709F49FC1FC01A6
:1052900001900020E9F731978F01081B190BB80125
:1052A000CE0182960E94C0162AA13BA1811187C11E
:1052B0002115310519F0C9010E94D32B1BA21AA296
:1052C0001FA21EA21DA21CA288A599A5009709F4E1
:1052D00085C16AA17BA16115710509F47DC14AA54B
:1052E0005BA52EA13FA14217530708F475C10E9488
:1052F00007338EA19FA19DA78CA71FA21EA28AA1E2
:105300009BA1009711F00E94D32B4CA55DA568A529
:1053100079A584E495E00E94A9010E94AA078C0166
:10532000909347048093460461E082E00E94E8087D
:10533000A80170E060E02AE084E495E00E9408089B
:105340000E947E0720E030E04CE052E40E940232EE
:105350001816F4F4809144048823D1F01092440488
:1053600060E085E00E94E40260E087E00E94E808D7
:1053700081E092E00E94610888E692E00E94541E5B
:1053800080E992E00E94541E82E090E00E94B91EE3
:105390008091460490914704803D9740E8F48091C5
:1053A0004504811119C00E94A20761E087E00E94B4
:1053B000E80880EE91E00E94610881E08093450456
:1053C00084E090E00E94B91E89EA92E00E94541E97
:1053D0008AEC92E00E94541E80914604909147040A
:1053E000883B9B40E1F4809145048823C1F00E94F2
:1053F0009A0761E087E00E94E8088BEE91E00E9446
:1054000061081092450484E090E00E94B91E87EE86
:1054100092E00E94541E89EF92E00E94541E82EB9B
:1054200096E00E94AC180E94180468AB79AB8AAB76
:105430009BAB80E5E82E85E0F82E8701D8015596D4
:105440001C921E92549714968D919C911597892BBE
:1054500029F416968D919C91892BC9F1F801408011
:1054600051806280738068A979A98AA99BA964196F
:1054700075098609970983849484A584B684681580
:1054800079058A059B0518F1A50194010E945F31F9
:10549000C501B4010E940732460E571E681E791ED0
:1054A000D8014D925D926D927C92139753968C9198
:1054B0005397882361F01F962D913C9150972115A9
:1054C000310509F09CC055963C922E9254970A5E85
:1054D0001F4F36E0003B130709F0B0CF10E000E0AB
:1054E000D70154968D919C915597892BE9F11A9685
:1054F0008C911A97882309F497C01696ED91FC9128
:10550000179718968D919C910995F7018489958933
:10551000029751F58091B0069091B106892B21F147
:1055200084819581892B21F486819781892BE1F0F3
:1055300026E1209FF001219FF00D1124E05BFA4F3E
:10554000DF011D922A95E9F70E941804F701608394
:105550007183828393838091B0069091B106019705
:105560009093B1068093B0060F5F1F4FF6E1EF0EE8
:10557000F11C0031110509F0B3CF88A599A500975A
:1055800011F00E94D32B20E030E0232B09F439CE18
:105590000E941302882309F434CE0E94000031CE09
:1055A000019676968031910509F0EFCD23CE1DA6A8
:1055B0001CA666E173E0C9010E94073355CE1FA304
:1055C0000EA3B701C9010E9407337ECE8AA19BA119
:1055D000009709F071CE72CE0E94D32B8AA19BA1B5
:1055E00099A788A78CA19DA19BA78AA78EA19FA1FF
:1055F0009DA78CA71BA21AA21DA21CA27ECEF801F9
:10560000818992898217930708F061CF358A248AAD
:105610000196928B818B8217930708F458CF22E072
:1056200030E0358B248B53CF1496ED91FC91099586
:105630006CCFEF920F931F93CF93DF93E80134E089
:1056400047FD34E1042E000C550B57FF03C0519564
:1056500041955109E32E022F242FAE010E94902D77
:10566000CE01DF91CF911F910F91EF9008950F938D
:105670001F93CF93DF938230910510F482E090E086
:10568000E091F506F091F60630E020E0B0E0A0E011
:10569000309799F42115310509F44AC0281B390BBC
:1056A00024303105D8F58A819B816115710589F116
:1056B000FB0193838283FE0111C0408151810281ED
:1056C000138148175907E0F04817590799F41097C4
:1056D00061F012960C93129713961C933296CF0199
:1056E000DF91CF911F910F9108950093F5061093CC
:1056F000F606F4CF2115310551F04217530738F063
:10570000A901DB019A01BD01DF01F801C1CFEF0161
:10571000F9CF9093F6068093F506CDCFFE01E20F08
:10572000F31F819391932250310939832883D7CF76
:105730002091F3063091F406232B41F420912501AA
:10574000309126013093F4062093F3062091230133
:10575000309124012115310541F42DB73EB7409118
:10576000270150912801241B350BE091F306F0919D
:10577000F406E217F307A0F42E1B3F0B2817390796
:1057800078F0AC014E5F5F4F2417350748F04E0F9D
:105790005F1F5093F4064093F306819391939FCF3C
:1057A000F0E0E0E09CCFCF93DF930097E9F0FC01BD
:1057B000329713821282A091F506B091F606ED01A0
:1057C00030E020E01097A1F420813181820F931FF7
:1057D0002091F3063091F4062817390709F061C0CB
:1057E000F093F406E093F306DF91CF910895EA0178
:1057F000CE17DF07E8F54A815B819E01411551050F
:10580000B1F7E901FB83EA8349915991C40FD51F90
:10581000EC17FD0761F4808191810296840F951F3A
:10582000E90199838883828193819B838A83F0E055
:10583000E0E012968D919C9113970097B9F52D9108
:105840003C911197CD010296820F931F2091F30690
:105850003091F4062817390739F6309751F5109230
:10586000F6061092F506B093F406A093F306BCCFAB
:10587000D383C28340815181840F951FC817D907F4
:1058800061F44E5F5F4F88819981480F591F5183A2
:1058900040838A819B81938382832115310509F09E
:1058A000B0CFF093F606E093F5069ECFFD01DC0144
:1058B000C0CF13821282D7CF8F929F92AF92BF92A6
:1058C000CF92DF92EF92FF92CF93DF93EC0168814A
:1058D00079818A819B81611571058105910521F48A
:1058E00064E279ED8BE597E02DE133EF41E050E0A4
:1058F0000E94F63049015A019B01AC01A7EAB1E4CC
:105900000E9415316B017C01ACEEB4EFA50194014E
:105910000E942331C60ED71EE81EF91EF7FE06C0F0
:1059200081E0C81AD108E10880E8F80AC882D98263
:10593000EA82FB82C701B6019F77DF91CF91FF908A
:10594000EF90DF90CF90BF90AF909F908F90089591
:105950008F929F92AF92BF92CF92DF92EF92FF927F
:105960006091290170912A0180912B0190912C0165
:10597000611571058105910521F464E279ED8BE5EE
:1059800097E02DE133EF41E050E00E94F63049010D
:105990005A019B01AC01A7EAB1E40E9415316B01E9
:1059A0007C01ACEEB4EFA50194010E942331C60E38
:1059B000D71EE81EF91EF7FE06C081E0C81AD108FE
:1059C000E10880E8F80AC0922901D0922A01E09209
:1059D0002B01F0922C01C701B6019F77FF90EF9049
:1059E000DF90CF90BF90AF909F908F90089560937D
:1059F000290170932A0180932B0190932C01089523
:105A0000FC0188279927E89421912032E9F3293075
:105A100010F02E30C8F32B3241F02D3239F4689457
:105A200004C00E946E2D820F911D219120532A30B7
:105A3000C0F31EF4909581959F4F08951F93FC012C
:105A400099278827BC01E89411911032E9F31930A5
:105A500010F01E30C8F31B3251F01D3249F4689427
:105A600006C00E94592D610F711D811D911D11915C
:105A700010531A30B0F33EF490958095709561956F
:105A80007F4F8F4F9F4F1F910895FB01DC0102C094
:105A900005900D9241505040D8F70895BB274A30E9
:105AA00031F4992322F4BDE2909581959F4F0C9497
:105AB000772D592F482F372F262F660F771F881FD6
:105AC000991F660F771F881F991F620F731F841F0E
:105AD000951F660F771F881F991F08957AE0979F7B
